{
  "_format": "hh-sol-artifact-1",
  "contractName": "AdoptContract",
  "sourceName": "contracts/AdoptContract.sol",
  "abi": [
    {
      "inputs": [
        {
          "internalType": "string",
          "name": "_name",
          "type": "string"
        },
        {
          "internalType": "string",
          "name": "_adoptUrl",
          "type": "string"
        },
        {
          "internalType": "string",
          "name": "_creatorName",
          "type": "string"
        },
        {
          "internalType": "address",
          "name": "_payableAddress",
          "type": "address"
        },
        {
          "internalType": "uint256",
          "name": "_price",
          "type": "uint256"
        }
      ],
      "stateMutability": "nonpayable",
      "type": "constructor"
    },
    {
      "inputs": [],
      "name": "getAdoptUrl",
      "outputs": [
        {
          "internalType": "string",
          "name": "",
          "type": "string"
        }
      ],
      "stateMutability": "view",
      "type": "function"
    },
    {
      "inputs": [],
      "name": "getCreator",
      "outputs": [
        {
          "internalType": "string",
          "name": "",
          "type": "string"
        }
      ],
      "stateMutability": "view",
      "type": "function"
    },
    {
      "inputs": [],
      "name": "getName",
      "outputs": [
        {
          "internalType": "string",
          "name": "",
          "type": "string"
        }
      ],
      "stateMutability": "view",
      "type": "function"
    },
    {
      "inputs": [],
      "name": "getOwner",
      "outputs": [
        {
          "internalType": "address",
          "name": "",
          "type": "address"
        }
      ],
      "stateMutability": "view",
      "type": "function"
    },
    {
      "inputs": [],
      "name": "getPrice",
      "outputs": [
        {
          "internalType": "uint256",
          "name": "",
          "type": "uint256"
        }
      ],
      "stateMutability": "view",
      "type": "function"
    },
    {
      "inputs": [],
      "name": "purchase",
      "outputs": [],
      "stateMutability": "payable",
      "type": "function"
    }
  ],
  "bytecode": "0x60806040523480156200001157600080fd5b5060405162001112380380620011128339818101604052810190620000379190620003f2565b62000067604051806060016040528060248152602001620010ee6024913986620000f060201b620004a61760201c565b846000908162000078919062000718565b5083600190816200008a919062000718565b5082600290816200009c919062000718565b5081600360006101000a81548173ffffffffffffffffffffffffffffffffffffffff021916908373ffffffffffffffffffffffffffffffffffffffff1602179055508060048190555050505050506200088c565b6200019282826040516024016200010992919062000851565b6040516020818303038152906040527f4b5c4277000000000000000000000000000000000000000000000000000000007bffffffffffffffffffffffffffffffffffffffffffffffffffffffff19166020820180517bffffffffffffffffffffffffffffffffffffffffffffffffffffffff83818316178352505050506200019660201b60201c565b5050565b60008151905060006a636f6e736f6c652e6c6f679050602083016000808483855afa5050505050565b6000604051905090565b600080fd5b600080fd5b600080fd5b600080fd5b6000601f19601f8301169050919050565b7f4e487b7100000000000000000000000000000000000000000000000000000000600052604160045260246000fd5b6200022882620001dd565b810181811067ffffffffffffffff821117156200024a5762000249620001ee565b5b80604052505050565b60006200025f620001bf565b90506200026d82826200021d565b919050565b600067ffffffffffffffff82111562000290576200028f620001ee565b5b6200029b82620001dd565b9050602081019050919050565b60005b83811015620002c8578082015181840152602081019050620002ab565b60008484015250505050565b6000620002eb620002e58462000272565b62000253565b9050828152602081018484840111156200030a5762000309620001d8565b5b62000317848285620002a8565b509392505050565b600082601f830112620003375762000336620001d3565b5b815162000349848260208601620002d4565b91505092915050565b600073ffffffffffffffffffffffffffffffffffffffff82169050919050565b60006200037f8262000352565b9050919050565b620003918162000372565b81146200039d57600080fd5b50565b600081519050620003b18162000386565b92915050565b6000819050919050565b620003cc81620003b7565b8114620003d857600080fd5b50565b600081519050620003ec81620003c1565b92915050565b600080600080600060a08688031215620004115762000410620001c9565b5b600086015167ffffffffffffffff811115620004325762000431620001ce565b5b62000440888289016200031f565b955050602086015167ffffffffffffffff811115620004645762000463620001ce565b5b62000472888289016200031f565b945050604086015167ffffffffffffffff811115620004965762000495620001ce565b5b620004a4888289016200031f565b9350506060620004b788828901620003a0565b9250506080620004ca88828901620003db565b9150509295509295909350565b600081519050919050565b7f4e487b7100000000000000000000000000000000000000000000000000000000600052602260045260246000fd5b600060028204905060018216806200052a57607f821691505b60208210810362000540576200053f620004e2565b5b50919050565b60008190508160005260206000209050919050565b60006020601f8301049050919050565b600082821b905092915050565b600060088302620005aa7fffffffffffffffffffffffffffffffffffffffffffffffffffffffffffffffff826200056b565b620005b686836200056b565b95508019841693508086168417925050509392505050565b6000819050919050565b6000620005f9620005f3620005ed84620003b7565b620005ce565b620003b7565b9050919050565b6000819050919050565b6200061583620005d8565b6200062d620006248262000600565b84845462000578565b825550505050565b600090565b6200064462000635565b620006518184846200060a565b505050565b5b8181101562000679576200066d6000826200063a565b60018101905062000657565b5050565b601f821115620006c857620006928162000546565b6200069d846200055b565b81016020851015620006ad578190505b620006c5620006bc856200055b565b83018262000656565b50505b505050565b600082821c905092915050565b6000620006ed60001984600802620006cd565b1980831691505092915050565b6000620007088383620006da565b9150826002028217905092915050565b6200072382620004d7565b67ffffffffffffffff8111156200073f576200073e620001ee565b5b6200074b825462000511565b620007588282856200067d565b600060209050601f8311600181146200079057600084156200077b578287015190505b620007878582620006fa565b865550620007f7565b601f198416620007a08662000546565b60005b82811015620007ca57848901518255600182019150602085019450602081019050620007a3565b86831015620007ea5784890151620007e6601f891682620006da565b8355505b6001600288020188555050505b505050505050565b600082825260208201905092915050565b60006200081d82620004d7565b620008298185620007ff565b93506200083b818560208601620002a8565b6200084681620001dd565b840191505092915050565b600060408201905081810360008301526200086d818562000810565b9050818103602083015262000883818462000810565b90509392505050565b610852806200089c6000396000f3fe6080604052600436106100555760003560e01c80630ee2cb101461005a57806317d7de7c1461008557806364edfbf0146100b0578063893d20e8146100ba5780639349d4ce146100e557806398d5fdca14610110575b600080fd5b34801561006657600080fd5b5061006f61013b565b60405161007c91906105fb565b60405180910390f35b34801561009157600080fd5b5061009a6101cd565b6040516100a791906105fb565b60405180910390f35b6100b861025f565b005b3480156100c657600080fd5b506100cf6103e0565b6040516100dc919061065e565b60405180910390f35b3480156100f157600080fd5b506100fa61040a565b60405161010791906105fb565b60405180910390f35b34801561011c57600080fd5b5061012561049c565b6040516101329190610692565b60405180910390f35b60606002805461014a906106dc565b80601f0160208091040260200160405190810160405280929190818152602001828054610176906106dc565b80156101c35780601f10610198576101008083540402835291602001916101c3565b820191906000526020600020905b8154815290600101906020018083116101a657829003601f168201915b5050505050905090565b6060600080546101dc906106dc565b80601f0160208091040260200160405190810160405280929190818152602001828054610208906106dc565b80156102555780601f1061022a57610100808354040283529160200191610255565b820191906000526020600020905b81548152906001019060200180831161023857829003601f168201915b5050505050905090565b600073ffffffffffffffffffffffffffffffffffffffff16600560009054906101000a900473ffffffffffffffffffffffffffffffffffffffff1673ffffffffffffffffffffffffffffffffffffffff16146102f0576040517f08c379a00000000000000000000000000000000000000000000000000000000081526004016102e790610759565b60405180910390fd5b6004543414610334576040517f08c379a000000000000000000000000000000000000000000000000000000000815260040161032b906107c5565b60405180910390fd5b600360009054906101000a900473ffffffffffffffffffffffffffffffffffffffff1673ffffffffffffffffffffffffffffffffffffffff166108fc349081150290604051600060405180830381858888f1935050505015801561039c573d6000803e3d6000fd5b5033600560006101000a81548173ffffffffffffffffffffffffffffffffffffffff021916908373ffffffffffffffffffffffffffffffffffffffff160217905550565b6000600560009054906101000a900473ffffffffffffffffffffffffffffffffffffffff16905090565b606060018054610419906106dc565b80601f0160208091040260200160405190810160405280929190818152602001828054610445906106dc565b80156104925780601f1061046757610100808354040283529160200191610492565b820191906000526020600020905b81548152906001019060200180831161047557829003601f168201915b5050505050905090565b6000600454905090565b61053e82826040516024016104bc9291906107e5565b6040516020818303038152906040527f4b5c4277000000000000000000000000000000000000000000000000000000007bffffffffffffffffffffffffffffffffffffffffffffffffffffffff19166020820180517bffffffffffffffffffffffffffffffffffffffffffffffffffffffff8381831617835250505050610542565b5050565b60008151905060006a636f6e736f6c652e6c6f679050602083016000808483855afa5050505050565b600081519050919050565b600082825260208201905092915050565b60005b838110156105a557808201518184015260208101905061058a565b60008484015250505050565b6000601f19601f8301169050919050565b60006105cd8261056b565b6105d78185610576565b93506105e7818560208601610587565b6105f0816105b1565b840191505092915050565b6000602082019050818103600083015261061581846105c2565b905092915050565b600073ffffffffffffffffffffffffffffffffffffffff82169050919050565b60006106488261061d565b9050919050565b6106588161063d565b82525050565b6000602082019050610673600083018461064f565b92915050565b6000819050919050565b61068c81610679565b82525050565b60006020820190506106a76000830184610683565b92915050565b7f4e487b7100000000000000000000000000000000000000000000000000000000600052602260045260246000fd5b600060028204905060018216806106f457607f821691505b602082108103610707576107066106ad565b5b50919050565b7f41646f707420616c726561647920707572636861736564000000000000000000600082015250565b6000610743601783610576565b915061074e8261070d565b602082019050919050565b6000602082019050818103600083015261077281610736565b9050919050565b7f496e636f727265637420616d6f756e7400000000000000000000000000000000600082015250565b60006107af601083610576565b91506107ba82610779565b602082019050919050565b600060208201905081810360008301526107de816107a2565b9050919050565b600060408201905081810360008301526107ff81856105c2565b9050818103602083015261081381846105c2565b9050939250505056fea264697066735822122017dd6a4b87f073f24aa2a068db66e67f39fc22b119670e059e11b8e54fab118f64736f6c634300081200334465706c6f79696e6720612041646f7074436f6e74726163742077697468206e616d653a",
  "linkReferences": {},
  "deployedLinkReferences": {}
}